:103F000011248FEF94E09EBF8DBF24B614BE80E0D5
:103F100048D021FE75C08EE044D0AFE7BFEFB29924
:103F2000FECF9096B29BFDCFB0B91197F1F782E02A
:103F300082B988E181B926D0823069F42DD0A0E021
:103F4000B1E020D08D93A038E1F7A0E02ED037D09B
:103F50008BE514D0F0CF833041F41ED0C82F25D08C
:103F600085910CD0C150E1F7F3CF813521F488E081
:103F700018D01BD0EDCF8230E0F71AC0159BFECFD2
:103F800083B90895C09AB89A179BFECF149910C0B0
:103F9000A89583B1C0980895F5DFE82FF3DFF82FD7
:103FA000F1CF98E191BD81BD0895ECDF803219F029
:103FB00088E0F7DFFFCF80E2E1CFFB01DC01E078B2
:103FC00070E87A0FFF3390F483E00BD081E00D901E
:103FD0001D9007D03296A713FACF329785E001D013
:103FE00081E187BFE89517B610FCFDCF1124089535
:063FFA000200DECF804052
:0400000300003F00BA
:00000001FF
