:103E800011248FEF94E09EBF8DBF24B614BE80E056
:103E900076D021FEEBC08EE072D0AFE7BFEFB299D3
:103EA000FECF9096B29BFDCFB0B91197F1F782E0AB
:103EB00082B988E181B953D0C82F823559F463D0D3
:103EC000E0E8FEE3E058F109A89583E081D030975F
:103ED000C9F73EC08D7FE9F44DD0D82FA0E0B1E006
:103EE0003ED08D93DA13FCCF4ED0C1110EC0A0E0AE
:103EF000B1E0E199FECFFFBBEEBB8D918DBBE29AA5
:103F0000E19A3196DA13F5CF23C0A0E0B1E045D0B5
:103F10001FC0C33041F42ED0C82F35D085911BD09F
:103F2000C150E1F715C0C13071F424D0C82F2BD097
:103F3000E199FECFFFBBEEBBE09A8DB30CD031967A
:103F4000C150B1F705C0C13511F488E018D01BD0BD
:103F50008AE501D0B0CF159BFECF83B90895C09AF2
:103F6000B89A82B187FFFDCF84FD10C0A89583B1B8
:103F7000C0980895F4DFE82FF2DFF82FF0CF98E132
:103F800091BD81BD0895EBDF803219F088E0F7DF45
:103F9000FFCF80EAE0CFFB01DC0160E86A0F9F0100
:103FA000E0388EE3F807C8F483E012D0309629F4A5
:103FB0008FE38D938FEC8C93119781E00D901D9082
:103FC00007D03296A613FACFF90185E001D081E13E
:0E3FD00087BFE89507B600FCFDCF11240895C9
:063FFA00031BCCCFE73FE2
:0400000300003E803B
:00000001FF
