:103F000011248FEF94E09EBF8DBF24B614BE80E0D5
:103F10004BD021FE75C08EE047D0AFE7BFEFB2991E
:103F2000FECF9096B29BFDCFB0B91197F1F782E02A
:103F300082B988E181B928D0823069F430D0382F35
:103F4000A0E0B1E021D08D933A13FCCF31D0A0E0B6
:103F5000B1E038D012C0833041F421D0C82F28D02E
:103F600085910ED0C150E1F708C0823008F423C01B
:103F7000813511F488E018D01BD08BE501D0DBCF60
:103F8000159BFECF83B90895C09AB89A82B187FF76
:103F9000FDCF84FD10C0A89583B1C0980895F4DFCB
:103FA000E82FF2DFF82FF0CF98E191BD81BD0895A1
:103FB000EBDF803219F088E0F7DFFFCF80E2E0CF5F
:103FC000FB01DC0160E86A0F9F01FF3390F483E09E
:103FD0000BD081E00D901D9007D03296A613FACF3A
:103FE000F90185E001D081E187BFE89507B600FCC3
:063FF000FDCF112408952D
:063FFA000200E1CFA03F30
:0400000300003F00BA
:00000001FF
