:103E800011248FEF94E09EBF8DBF24B614BE80E056
:103E90006ED021FEEBC08EE06AD0AFE7BFEFB299E3
:103EA000FECF9096B29BFDCFB0B91197F1F782E0AB
:103EB00082B988E181B94FD0C82F823569F45BD0CF
:103EC000E0E0FEE3A89583E088D086D0E058F109D1
:103ED000C8F78AE53CD0EFCF8D7FD9F443D0D82FF7
:103EE000A0E0B1E038D08D93DA13FCCFA0E0B1E0D0
:103EF00042D0C1110CC0FFBBEEBB8D918DBBE29ACD
:103F0000E19A3196E199FECFD150A9F7E2CF3DD0A9
:103F1000E0CFC33041F426D0C82F2DD0859117D0E3
:103F2000C150E1F7D6CFC13061F41CD0C82F23D0E7
:103F3000FFBBEEBBE09A8DB30AD03196C150C1F7FA
:103F4000C8CFC13511F488E012D015D0C2CF159B6F
:103F5000FECF83B90895179BFECF14990FC0A89583
:103F600083B10895F8DFE82FF6DFF82FF4CF98E15A
:103F700091BD81BD0895EFDF803219F088E0F7DF51
:103F8000FFCF80EAE4CFFB01DC01E07870E87A0F34
:103F90009F01E0388EE3F80728F5309629F48FE387
:103FA0008D938FEC8C93119790E045915D91451323
:103FB0009160A713FACFF901A058B10990FF12C080
:103FC00083E00BD081E00D901D9007D03296A713AF
:103FD000FACFF90185E001D081E187BFE89517B6F6
:083FE00010FCFDCF112408952F
:063FFA00031BC4CFE740E9
:0400000300003E803B
:00000001FF
