:103E000011248FEF94E09EBF8DBF24B614BE80E0D6
:103E1000A2D021FEF5C08EE09ED0AFE7BFEFB299F1
:103E2000FECF9096B29BFDCFB0B91197F1F782E02B
:103E300082B988E181B987D0813429F484D081E0C6
:103E40008ED087E011C0823411F485E173C08534CF
:103E500011F486E06FC0853749F481E080D08EE1AF
:103E60006DD084E96BD084E069D065C08635C1F43B
:103E70006AD0D82F68D0C82F66D065D081E06FD0C7
:103E8000DC3A11F08FEFF0CFC038E1F7E0E0FEE36D
:103E9000E058F109A89583E083D03097C9F7F2CFB5
:103EA000853539F450D0E82F4ED0F82FEE0FFF1F94
:103EB00040C0843601F546D0182F45D0082FC0E009
:103EC000D1E041D089931C13FCCF81E048D0063467
:103ED00071F0A0E0B1E0E199FECFFFBBEEBB8D91A8
:103EE0008DBBE29AE19A31961A13F5CF24C0A0E077
:103EF000B1E044D020C08437C1F424D0C82F23D0EF
:103F0000D82F81E02CD0D63459F0E199FECFFFBBF9
:103F1000EEBBE09A8DB312D03196C150B1F70BC011
:103F200085910CD0C150E1F706C0813511F488E0CD
:103F300012D081E014D080E101D07DCF159BFECF5F
:103F400083B9089500D082B187FFFDCF84FD0EC0F4
:103F5000A89583B1089598E191BD81BD0895CF934F
:103F6000C82FF1DFC150E9F7803219F088E0F3DFA4
:103F7000FFCF84E1CF91E2CFFB01DC0160E86A0F63
:103F80009F01FE3390F483E00BD081E00D901D90F3
:103F900007D03296A613FACFF90185E001D081E16E
:0E3FA00087BFE89507B600FCFDCF11240895F9
:063FFA000400BDCFC13F31
:0400000300003E00BB
:00000001FF
