:103F000011248FEF94E09EBF8DBF24B614BE80E0D5
:103F100048D021FE75C08EE044D0AFE7BFEFB29924
:103F2000FECF9096B29BFDCFB0B91197F1F782E02A
:103F300082B988E181B928D0823069F42DD0382F38
:103F4000A0E0B1E021D08D933A13FCCF2ED0A0E0B9
:103F5000B1E035D012C0833041F41ED0C82F25D037
:103F600085910ED0C150E1F708C0823008F420C01E
:103F7000813511F488E015D018D08BE501D0DBCF66
:103F8000159BFECF83B9089582B187FFFDCF84FDD5
:103F90000FC0A89583B10895F7DFE82FF5DFF82F5C
:103FA000F3CF98E191BD81BD0895EEDF803219F025
:103FB00088E0F7DFFFCF80E2E3CFFB01DC0160E8C0
:103FC0006A0F9F01FF3390F483E00BD081E00D90E6
:103FD0001D9007D03296A613FACFF90185E001D0E3
:103FE00081E187BFE89507B600FCFDCF1124089555
:063FFA000200DECFA03F33
:0400000300003F00BA
:00000001FF
