:103E800011248FEF94E09EBF8DBF24B614BE80E056
:103E900066D021FEEBC08EE062D0AFE7BFEFB299F3
:103EA000FECF9096B29BFDCFB0B91197F1F782E0AB
:103EB00082B988E181B946D0C82F8D7FE9F44AD014
:103EC000D82FA0E0B1E03ED08D93DA13FCCF4BD0D9
:103ED000C1110EC0A0E0B1E0E199FECFFFBBEEBB87
:103EE0008D918DBBE29AE19A3196DA13F5CF23C01A
:103EF000A0E0B1E042D01FC0C33041F42BD0C82FA6
:103F000032D085911BD0C150E1F715C0C13071F49A
:103F100021D0C82F28D0E199FECFFFBBEEBBE09A9D
:103F20008DB30CD03196C150B1F705C0C13511F435
:103F300088E015D018D08BE501D0BDCF159BFECF02
:103F400083B9089582B187FFFDCF84FD0FC0A89586
:103F500083B10895F7DFE82FF5DFF82FF3CF98E16D
:103F600091BD81BD0895EEDF803219F088E0F7DF62
:103F7000FFCF80E2E3CFFB01DC0160E86A0F9F0125
:103F8000E0388EE3F807C8F483E012D0309629F4C5
:103F90008FE38D938FEC8C93119781E00D901D90A2
:103FA00007D03296A613FACFF90185E001D081E15E
:0E3FB00087BFE89507B600FCFDCF11240895E9
:063FFA00031BBCCFE63FF3
:0400000300003E803B
:00000001FF
