:103F000011248FEF94E09EBF8DBF24B614BE80E0D5
:103F100044D021FEABC08EE040D0AFE7BFEF809928
:103F2000FECF9096809BFDCFB9B91197F1F782E053
:103F30008BB988E18AB924D0823069F429D0382F2E
:103F4000A0E0B1E01DD08D933A13FCCF2AD0A0E0C1
:103F5000B1E031D00EC0833041F41AD0C82F21D047
:103F600085910AD0C150E1F704C0823008F41CC02A
:103F700018D08BE501D0DFCF5D9BFECF8CB90895C3
:103F80008BB187FFFDCF84FD0FC0A8958CB108953C
:103F9000F7DFE82FF5DFF82FF3CF98E191BD81BD72
:103FA0000895EEDF803219F088E0F7DFFFCF80E27E
:103FB000E3CFFB01DC0160E86A0F9F01FF33C8F427
:103FC00083E012D0309629F48FE78D938FEC8C9399
:103FD000119781E00D901D9007D03296A613FACF6D
:103FE000F90185E001D081E187BFE89507B600FCC3
:063FF000FDCF112408952D
:063FFA00021BDACFA63F16
:0400000300003F00BA
:00000001FF
