:103E000011248FEF94E09EBF8DBF24B614BE80E0D6
:103E100073D021FEF5C08EE06FD0AFE7BFEF809981
:103E2000FECF9096809BFDCFB9B91197F1F782E054
:103E30008BB988E18AB953D0C82F823559F460D044
:103E4000E0E0FEE3E058F109A89583E075D03097F3
:103E5000C9F73EC08D7FE9F44AD0D82FA0E0B1E089
:103E60003ED08D93DA13FCCF4BD0C1110EC0A0E031
:103E7000B1E0E199FECFFFBBEEBB8D918DBBE29A25
:103E8000E19A3196DA13F5CF23C0A0E0B1E042D039
:103E90001FC0C33041F42BD0C82F32D085911BD026
:103EA000C150E1F715C0C13071F421D0C82F28D01E
:103EB000E199FECFFFBBEEBBE09A8DB30CD03196FB
:103EC000C150B1F705C0C13511F488E015D018D044
:103ED0008AE501D0B0CF5D9BFECF8CB908958BB140
:103EE00087FFFDCF84FD0FC0A8958CB10895F7DF43
:103EF000E82FF5DFF82FF3CF98E191BD81BD08954C
:103F0000EEDF803219F088E0F7DFFFCF80EAE3CF01
:103F1000FB01DC0160E86A0F9F01FE3390F483E04F
:103F20000BD081E00D901D9007D03296A613FACFEA
:103F3000F90185E001D081E187BFE89507B600FC73
:063F4000FDCF11240895DD
:063FFA00040089CFE13F45
:0400000300003E00BB
:00000001FF
