:103E800011248FEF94E09EBF8DBF24B614BE80E056
:103E900055D021FEEBC08EE051D0AFE7BFEF809947
:103EA000FECF9096809BFDCFB9B91197F1F782E0D4
:103EB0008BB988E18AB935D0823559F443D0E0E82E
:103EC000FEE3E058F109A89583E061D03097C9F787
:103ED00021C0823069F42DD0382FA0E0B1E021D08C
:103EE0008D933A13FCCF2ED0A0E0B1E035D012C0B4
:103EF000833041F41ED0C82F25D085910ED0C150FB
:103F0000E1F708C0823008F420C0813511F488E060
:103F100015D018D08AE501D0CECF5D9BFECF8CB9ED
:103F200008958BB187FFFDCF84FD0FC0A8958CB19C
:103F30000895F7DFE82FF5DFF82FF3CF98E191BD73
:103F400081BD0895EEDF803219F088E0F7DFFFCF02
:103F500080EAE3CFFB01DC0160E86A0F9F01E038F3
:103F60008EE3F807C8F483E012D0309629F48FE38B
:103F70008D938FEC8C93119781E00D901D9007D05D
:103F80003296A613FACFF90185E001D081E187BF0F
:0C3F9000E89507B600FCFDCF1124089551
:063FFA00031BABCFA73F43
:0400000300003E803B
:00000001FF
