:103E800011248FE594E09EBF8DBF24B614BE80E060
:103E900077D021FEDBC08FE073D0AFE7BFEF809912
:103EA000FECF9096809BFDCFB9B91197F1F782E0D4
:103EB0008BB988E18AB958D0C82F8235B1F464D063
:103EC000E0E0FEE3A8959F0170E87E0F65916F3FEB
:103ED00011F4E713FBCFF90111F083E085D0E0582E
:103EE000F10980F789E53CD0E6CF8D7FD9F443D046
:103EF000D82FA0E0B1E038D08D93DA13FCCFA0E04A
:103F0000B1E042D0C1110CC0FFBBEEBB8D918DBBA7
:103F1000E29AE19A3196E199FECFD150A9F7E2CF2A
:103F20003DD0E0CFC33041F426D0C82F2DD08591AD
:103F300017D0C150E1F7D6CFC13061F41CD0C82FE3
:103F400023D0FFBBEEBBE09A8DB30AD03196C150AF
:103F5000C1F7C8CFC13511F488E012D015D0C2CF57
:103F60005D9BFECF8CB908955F9BFECF5C990FC01F
:103F7000A8958CB10895F8DFE82FF6DFF82FF4CF7D
:103F800098E191BD81BD0895EFDF803219F088E09E
:103F9000F7DFFFCF80EAE4CFFB01DC01E07870E8D7
:103FA0007A0F9F01E0388EE3F80728F5309629F460
:103FB0008FE38D938FEC8C93119790E045915D91F9
:103FC00045139160A713FACFF901A058B10990FFEA
:103FD00012C083E009D081E00D901D9005D032968B
:103FE000A713FACFF90185E087BFE895FFFF00002E
:0A3FF00017B610FCFDCF1124089550
:063FFA000313CDCFE740E8
:0400000300003E803B
:00000001FF
