:101E000001C0A9C011248FE592E09EBF8DBF84B7A9
:101E100014BE982F9D7009F0CCD085E08EBD82E075
:101E20008BB988E18AB986E880BD8CE089B98EE0FB
:101E3000ADD0B89A84E043EC5FEF30E821E05DBDBF
:101E40004CBD38BF08B607FEFDCF98B3922798BBAC
:101E5000A8958150A1F7C0E0D0E091D0813469F419
:101E60008ED0182F97D0123811F482E004C01138A8
:101E700009F467C083E07FD06BC0823411F484E141
:101E800003C0853419F485E08DD062C0853541F4F6
:101E900076D0C82F74D0D0E0D82BCC0FDD1F57C020
:101EA000863521F484E07ED080E0E5CF843699F554
:101EB00066D065D0182F63D0082F80E6C82ED12CAD
:101EC00090E6F92EF10E5BD0F60181936F01FE12C0
:101ED000FACF60D0053409F4FFCF40E050E063E072
:101EE000CE0139D06E0100E610E0F80140810E5FAE
:101EF0001F4F3196808150E0582B61E0C6012BD0F6
:101F0000F2E0CF0ED11CF012F0CF40E050E065E0DF
:101F1000CE0121D01DC0843769F431D030D0182FC4
:101F20002ED038D07E01F70185917F0124D0115049
:101F3000D1F70EC0853739F42DD08EE11CD083E95E
:101F40001AD086E098CF813511F488E01FD022D0D6
:101F500080E111D082CFFC010A0167BFE89511240E
:101F600007B600FCFDCF667029F0452B19F481E11E
:101F700087BFE89508955D9BFECF8CB908955F9B60
:101F8000FECF5C9901C0A8958CB1089598E191BDF0
:101F900081BD0895F4DF803219F088E0F7DFFFCFCC
:101FA00084E1E9CFCF93C82FEADFC150E9F7CF91A1
:0E1FB000F1CF282E80E0EADFE0E0FF27099461
:021FFE000206D9
:0400000300001E00DB
:00000001FF
