:103F000011248FEF94E09EBF8DBF24B614BE80E0D5
:103F10004CD021FEABC08EE048D0AFE7BFEF809918
:103F2000FECF9096809BFDCFB9B91197F1F782E053
:103F30008BB988E18AB924D0823069F42CD0382F2B
:103F4000A0E0B1E01DD08D933A13FCCF29D0A0E0C2
:103F5000B1E031D00EC0833041F41DD0C82F20D045
:103F600085910AD0C150E1F704C0823008F4FFCF38
:103F700017D08BE501D0DFCF5D9BFECF8CB90895C4
:103F8000C09AB89A8BB187FFFDCF84FDFFCFA8956B
:103F90008CB1C0980895F4DFE82FF2DFF82FF0CF4E
:103FA000EFDF8032F9F780E2E7CF98E191BD81BD84
:103FB0000895FB01DC0160E86A0F9F01FF33C8F43C
:103FC00083E012D0309629F48FE78D938FEC8C9399
:103FD000119781E00D901D9007D03296A613FACF6D
:103FE000F90185E001D081E187BFE89507B600FCC3
:063FF000FDCF112408952D
:063FFA00021BDACFA63F16
:0400000300003F00BA
:00000001FF
