:103E000011248FEF94E09EBF8DBF24B614BE80E0D6
:103E100076D021FEF5C08EE072D0AFE7BFEF80997B
:103E2000FECF9096809BFDCFB9B91197F1F782E054
:103E30008BB988E18AB953D0C82F823559F463D041
:103E4000E0E0FEE3E058F109A89583E078D03097F0
:103E5000C9F73EC08D7FE9F44DD0D82FA0E0B1E086
:103E60003ED08D93DA13FCCF4ED0C1110EC0A0E02E
:103E7000B1E0E199FECFFFBBEEBB8D918DBBE29A25
:103E8000E19A3196DA13F5CF23C0A0E0B1E045D036
:103E90001FC0C33041F42ED0C82F35D085911BD020
:103EA000C150E1F715C0C13071F424D0C82F2BD018
:103EB000E199FECFFFBBEEBBE09A8DB30CD03196FB
:103EC000C150B1F705C0C13511F488E018D01BD03E
:103ED0008AE501D0B0CF5D9BFECF8CB90895C09A22
:103EE000B89A8BB187FFFDCF84FD10C0A8958CB127
:103EF000C0980895F4DFE82FF2DFF82FF0CF98E1B3
:103F000091BD81BD0895EBDF803219F088E0F7DFC5
:103F1000FFCF80EAE0CFFB01DC0160E86A0F9F0180
:103F2000FE3390F483E00BD081E00D901D9007D01C
:103F30003296A613FACFF90185E001D081E187BF5F
:0C3F4000E89507B600FCFDCF11240895A1
:063FFA0004008CCFE13F42
:0400000300003E00BB
:00000001FF
